:020000020000FC
:2000000000400034086008140800683A00000000000000000000000000000000000000003E
:2000080006C00074DEC0001406800074D686A0140080003410A75D1400C0003418E784147B
:2000100010C00326100000151080010410FFFD360008288000083740003FFF06DEFFFE0489
:20001800DFC00115DF000015D839883A010000742125E004000812000005883AE037883AF3
:20002000DFC00117DF000017DEC00204F800283ADEFFFD04DC0000152021883A2809883A50
:20002800DFC00215DC4001152823883A0008134080C002170200007442205504880D883A87
:20003000100F883A8009883A180B883A1A000115403EE83A047FFFC48009883A0180007449
:2000380031A5E50401C000441440071E00FFFFC41805883ADFC00217DC400117DC000017EB
:20004000DEC00304F800283A8140021728C00117183EE83A0007883A147FF51E003FF306A8
:200048000080007410A6A004200B883A110000170008090120800007100005262007883A58
:2000500018C0004418800007103FFD1E1905C83AF800283A2880000BDEFFFA04DCC00315AF
:200058001080020CDC800215DC400115DFC00515DD000415DC0000152825883A2027883A8D
:200060003023883A100020262940008F28000F1601C01B0E3821883A0501000400000206B9
:200068000400170E9140008F880D883A9809883A800F883AA400010E01C100040008210042
:2000700088A3883A80A1C83A00BFF5169080000B00FFFFC4108010149080000D1805883A09
:20007800DFC00517DD000417DCC00317DC800217DC400117DC000017DEC00604F800283A61
:200080000007883A003FF50600FFFFC4003FF306DEFFFD04DC0000150400007484275D0410
:20008800DC400115800000152023883A2809883A300B883A380D883ADFC0021500083E0099
:200090001007883A00BFFFC4188006261805883ADFC00217DC400117DC000017DEC00304CE
:20009800F800283A80800017103FF826888000151805883ADFC00217DC400117DC0000178F
:2000A000DEC00304F800283ADEFFFE04DFC00115DF000015D839883A010000742126A8047E
:2000A800014000742965F3040180007431A6A8040008308001000074212008040140007457
:2000B000296008040180007431A0080400083080010000742125E004014000742965E0044B
:2000B8000180007431A5F3040008308000089B800008BDC0E037883ADFC00117DF00001780
:2000C000DEC00204F800283ADEFFFC04DF000315DF000304E13FFD15E17FFE15E1BFFF150F
:2000C800E0FFFE17E0BFFD1718800E2600000A06E0BFFD1710C00017E0BFFE1710C0001562
:2000D000E0BFFE1710800104E0BFFE15E0BFFD1710800104E0BFFD15E0FFFE17E0BFFF1773
:2000D80018BFF31EE037883ADF000017DEC00104F800283ADEFFFD04DFC00215DF000115CB
:2000E000DF0001040009883A0008564000085980010000742125E604014000742965E60400
:2000E8000180007431A5E6040008CD000008B140010000742122DE0400093480D120BE1758
:2000F000D160BF17D1A0C017000805C0E0BFFF150100004400088580E13FFF17000935C09B
:2000F800DEFFF704DFC00815DF000715DF000704E13FFB15E17FFC15E1BFFD15E0BFFB176B
:200100001004803A1000091EE13FFB170140030400096E401007883A0080007410A64004E2
:200108001887883AE0FFFF1500000106E03FFF15E0BFFF17E0BFFA15E0BFFA171005003AE7
:200110001000241EE0BFFA1710800217108000CC1005003A10001A1EE0BFFA1710800017DA
:20011800108006171005003A1000151EE0BFFA171080001710800617E17FFC17E1BFFD175D
:20012000E13FFA17103EE83AE0BFF915E0BFF9171004403A1000071E00085040E0FFF91778
:2001280000C7C83A10C0001500BFFFC4E0BFFE1500000E06E0BFF917E0BFFE1500000B064F
:20013000000850401007883A008003441880001500000406000850401007883A0080144477
:200138001880001500BFFFC4E0BFFE15E0BFFE17E037883ADFC00117DF000017DEC00204E8
:20014000F800283ADEFFFD04DFC00215DF000115DF0001040080007410A6A70410800017DC
:200148001005003A1000061E0080007410A6A70410800017103EE83AE0BFFF1500000306EC
:200150000080007410A75D04E0BFFF15E0BFFF17E037883ADFC00117DF000017DEC00204F1
:20015800F800283ADEFFFD04DFC00215DF000115DF000104E13FFF1500090A400080004475
:200160001001703AE037883ADFC00117DF000017DEC00204F800283ADEFFFE04DFC00115AC
:20016800DF000015D839883A0100007421262B0400085C80E037883ADFC00117DF0000175B
:20017000DEC00204F800283ADEFFFD04DFC00215DF000115DF000104E13FFF15E13FFF179A
:20017800014000742966A4040008A000E037883ADFC00117DF000017DEC00204F800283A4F
:20018000DEFFFA04DFC00515DF000415DF000404E13FFD15E17FFE15E1BFFF15E0BFFD17E0
:2001880010800017E0BFFC15E0BFFC1711000A04E0BFFD1711C00217E17FFE17E1BFFF1767
:2001900000086B00E037883ADFC00117DF000017DEC00204F800283ADEFFFA04DFC00515C4
:20019800DF000415DF000404E13FFD15E17FFE15E1BFFF15E0BFFD1710800017E0BFFC1505
:2001A000E0BFFC1711000A04E0BFFD1711C00217E17FFE17E1BFFF1700087B40E037883A0A
:2001A800DFC00117DF000017DEC00204F800283ADEFFF604DF000915DF000904E13FFB159C
:2001B000E17FFC15E1BFFD15E1FFFE15E0BFFB1710800017E0BFFA15E0BFFC17E0BFF915B4
:2001B800E0BFFD171007883AE0BFFC1710C5883AE0BFF81500001606E0BFFA171080003713
:2001C000E0BFF715E0BFF71710A0000C1005003A1000081EE0BFF7171007883AE0BFF91751
:2001C80010C00005E0BFF91710800044E0BFF91500000706E0FFF917E0BFFC171880071EA7
:2001D000E0BFFE171090000C1004C03A1000031EE0FFF917E0BFF81718BFE736E0FFF917F0
:2001D800E0BFFC1718800526E0FFF917E0BFFC171887C83AE0FFFF1500000906E0BFFE179A
:2001E0001090000C1005003A1000031E00BFFD44E0BFFF150000020600BFFEC4E0BFFF15E4
:2001E800E0BFFF17E037883ADF000017DEC00104F800283ADEFFF904DF000615DF000604B9
:2001F000E13FFC15E17FFD15E1BFFE15E1FFFF15E0BFFC1710800017E0BFFB15E0BFFE17E9
:2001F8001007883AE0BFFD1710C5883AE0BFFA1500001106E0BFFB171080010410800037F2
:2002000010BFFFEC1005003A10000B1EE13FFB17E0BFFD171080000310C03FCC18C0201C35
:2002080018FFE004E0BFFD1710800044E0BFFD152005883A10C00035E0FFFD17E0BFFA1714
:2002100018BFEC36E0BFFE17E037883ADF000017DEC00104F800283ADEFFF804DFC00715C1
:20021800DF000615DF000604E13FFC15E0BFFC171004803A1000091EE13FFC170140030480
:2002200000096E401007883A0080007410A640041887883AE0FFFF1500000106E03FFF15B2
:20022800E0BFFF17E0BFFB15E0BFFB171005003A10001D1EE0BFFB17108000171080041704
:200230001005003A1000071EE0BFFB171080001710800417E13FFB17103EE83AE0BFFE15D3
:2002380000000106E03FFE15E0BFFE17E0BFFA15E13FFC17000902C0E0BFFA171004403ACF
:200240001000071E00089580E0FFFA1700C7C83A10C0001500BFFFC4E0BFFD15000008066D
:20024800E03FFD1500000606000895801007883A008014441880001500BFFFC4E0BFFD15AB
:20025000E0BFFD17E037883ADFC00117DF000017DEC00204F800283ADEFFFD04DFC00215C3
:20025800DF000115DF0001040080007410A6A704108000171005003A1000061E008000743A
:2002600010A6A70410800017103EE83AE0BFFF15000003060080007410A75D04E0BFFF158B
:20026800E0BFFF17E037883ADFC00117DF000017DEC00204F800283ADEFFFF04DF00001569
:20027000D839883AE037883ADF000017DEC00104F800283ADEFFFC04DF000315DF00030415
:20027800E13FFD15E17FFE15E1BFFF15E0BFFF17E037883ADF000017DEC00104F800283A8C
:20028000DEFFF904DFC00615DF000515DF000504E13FFD15E17FFE15E0BFFD171005003A42
:200288001000041EE0BFFD17108002171004C03A1000071E0008AB401007883A00800584B0
:200290001880001500BFFA84E0BFFF1500001306E0FFFD17E0BFFE17E0BFFB15E0FFFC1552
:20029800E0FFFC17E0BFFB1718800115E0BFFB1710C00017E0BFFC1710C00015E0BFFB1715
:2002A00010C00017E0BFFC1718800115E0FFFB17E0BFFC1718800015E03FFF15E0BFFF17BF
:2002A800E037883ADFC00117DF000017DEC00204F800283ADEFFFD04DFC00215DF00011529
:2002B000DF0001040080007410A6A704108000171005003A1000061E0080007410A6A70476
:2002B80010800017103EE83AE0BFFF15000003060080007410A75D04E0BFFF15E0BFFF17DF
:2002C000E037883ADFC00117DF000017DEC00204F800283ADEFFFD04DFC00215DF00011511
:2002C800DF00010400BFFF0400C0007418E5E0041885883AE0BFFF1500000606E0BFFF1788
:2002D00010800017103EE83AE0BFFF1710BFFF04E0BFFF15E0FFFF170080007410A5DF043C
:2002D80018BFF62EE037883ADFC00117DF000017DEC00204F800283ADEFFFD04DFC00215F3
:2002E000DF000115DF00010400BFFF0400C0007418E5E0041885883AE0BFFF150000060630
:2002E800E0BFFF1710800017103EE83AE0BFFF1710BFFF04E0BFFF15E0FFFF170080007407
:2002F00010A5E00418BFF62EE037883ADFC00117DF000017DEC00204F800283ADEFFFF04F6
:2002F800DF000015D839883AE037883ADF000017DEC00104F800283ADEFFF804DFC00715BF
:20030000DF000615DC000515DF000504E13FFC15E17FFD15E1BFFE15E1FFFF15E13FFD1787
:20030800E17FFE17E1BFFF170008E400E0BFFB15E0BFFB171004803A10001F1EE13FFB1711
:2003100004000074842640040140030400096E401405883A10C00017E0BFFC1710C000150F
:20031800E13FFB1704000074842640040140030400096E401405883A1080010410C00017D7
:20032000E0BFFC1710C00115E13FFB1704000074842640040140030400096E401405883AB3
:200328001080020410C00017E0BFFC1710C00215E13FFB17000902C0E037883ADFC0021711
:20033000DF000117DC000017DEC00304F800283ADEFFFB04DFC00415DF000315DF00030453
:20033800E13FFD15E17FFE15E1BFFF150100007421264304E17FFD170180004401C07FC40C
:200340000008BF800100007421264004E17FFE17000D883A01C07FC40008BF800100007452
:2003480021264604E17FFF170180004401C07FC40008BF80E037883ADFC00117DF000017F8
:20035000DEC00204F800283ADEFFFA04DFC00515DF000415DC000315DF000304E13FFE15F6
:20035800E0BFFE171080021710D00034E0BFFE1710C00215E03FFD1500002306E13FFD17EB
:2003600004000074842640040140030400096E401405883A10C00017E0BFFE1710800017FB
:200368001880161EE13FFD1704000074842640040140030400096E401405883A108002049F
:20037000108000171004403A10000C1EE13FFD170140030400096E401007883A00800074FE
:2003780010A640041887883AE0BFFE171880032600BFFCC4E0BFFF1500000A06E0BFFD17A0
:2003800010800044E0BFFD150080007410A6A604108000171007883AE0BFFD1718BFD72E75
:20038800E03FFF15E0BFFF17E037883ADFC00217DF000117DC000017DEC00304F800283AF3
:20039000DEFFF404DFC00B15DF000A15DF000A04E13FFB15E17FFC15E1BFFD1500BFFFC4F9
:20039800E0BFF81500BFFB44E0BFF715E03FF615E13FFB17014000742966A40400090C4053
:2003A000E0BFFA15E0BFFA171004C03A1000051EE13FFB1700091580E0BFFA15008000445C
:2003A800E0BFF615E0BFFA171005003A1000311EE13FFA1700092780E0BFF815E0BFF817F2
:2003B0001004403A1000031EE0BFF817E0BFF71500002A06E13FF8170140030400096E40B7
:2003B8001007883A0080007410A640041885883AE0BFF915E0FFFC170090003410BFFFC40A
:2003C0001886703AE0BFF91710C00215E0BFF6171004C03A1000061EE13FF9170008D480C5
:2003C800E0BFF715E0BFF7171004803A1000131EE0BFFA17108003171005003A1000091ECE
:2003D000E0BFFA1710800317E13FF917E17FFB17E1BFFC17E1FFFD17103EE83AE0BFFF1547
:2003D80000000106E03FFF15E0BFFF17E0BFF7150000020600BFFB44E0BFF715E0BFF7170D
:2003E0001004403A1000091EE13FF817000902C00008FCC0E0FFF71700C7C83A10C00015DF
:2003E80000BFFFC4E0BFFE1500000206E0BFF817E0BFFE15E0BFFE17E037883ADFC0011715
:2003F000DF000017DEC00204F800283ADEFFFD04DFC00215DF000115DF0001040080007498
:2003F80010A6A704108000171005003A1000061E0080007410A6A70410800017103EE83AEE
:20040000E0BFFF15000003060080007410A75D04E0BFFF15E0BFFF17E037883ADFC001171C
:20040800DF000017DEC00204F800283ADEFFFC04DFC00315DF000215DC000115DF00010480
:20041000E13FFF15E0BFFF17108000D010000F1EE13FFF1704000074842640040140030462
:2004180000096E401405883A1080020410000015E13FFF1704000074842640040140030493
:2004200000096E401405883A10000015E037883ADFC00217DF000117DC000017DEC00304E5
:20042800F800283ADEFFFF04DF000015D839883A000170FAE037883ADF000017DEC00104D6
:20043000F800283ADEFFF904DFC00615DF000515DF000504E13FFD15E17FFE15E0BFFE1784
:2004380010800017E0BFFC15E13FFD170008134010800044E0BFFB1500000D06E0BFFC1776
:2004400011000217E1BFFB17E17FFD17000937C01004C03A1000031EE0BFFC17E0BFFF15A8
:2004480000000706E0BFFC1710800017E0BFFC15E0FFFE17E0BFFC1710FFF01EE03FFF1588
:20045000E0BFFF17E037883ADFC00117DF000017DEC00204F800283ADEFFFA04DFC00515BF
:20045800DF000415DF000404E13FFE150080007410A6A20410800017E0BFFD150000330691
:20046000E0BFFD171100021700081340E0BFFC15E0BFFD1710C00217E0BFFC171885883AE7
:2004680010BFFFC41080000310803FCC1080201C10BFE00410800BD81000031EE0BFFC17DF
:2004700010BFFFC4E0BFFC15E0BFFC171007883AE0BFFE171885883A1080000310803FCC5E
:200478001080201C10BFE00410800BE010000A1EE0BFFC171007883AE0BFFE171885883A94
:200480001080000310803FCC1080201C10BFE0041004C03A10000A1EE0BFFD17110002178C
:20048800E1BFFC17E17FFE17000937C01004C03A1000031EE0BFFD17E0BFFF150000080679
:20049000E0BFFD1710800017E0BFFD1500C0007418E6A204E0BFFD1710FFC91EE03FFF158D
:20049800E0BFFF17E037883ADFC00117DF000017DEC00204F800283ADEFFFA04DFC0051577
:2004A000DF000415DC000315DF000304E13FFF1500BFFA04E0BFFD15E03FFE150000200670
:2004A800E13FFE1704000074842640040140030400096E401405883A108000171004C03A0A
:2004B0001000141EE13FFE1704000074842640040140030400096E401407883AE0BFFF17BE
:2004B800188000150080007410A6A60410C00017E0BFFE171880040E00C0007418E6A60402
:2004C000E0BFFE1718800015E0BFFE17E0BFFD1500000606E0BFFE1710800044E0BFFE1510
:2004C800E0BFFE1710800810103FDD1EE0BFFD17E037883ADFC00217DF000117DC00001740
:2004D000DEC00304F800283A200B883A000D883A0009883A000F883A00093B81DEFFFE0411
:2004D800DC400015000B883A2023883ADFC00115000952808809883A000975C031FFFFC4ED
:2004E0003000061E00000A0639FFFFC400BFFFC421000044294000443880052620C0000343
:2004E8002880000318BFF8261885C83AF800283A0005883AF800283ADEFFF904008000746C
:2004F00010A6A104DC40011514400017DC000015DD4005158C000C17DD000415DCC0031573
:2004F800DC800215DFC006152025883A282B883A3029883A3827883A8000262681400117BA
:20050000008007C4114037169000202681802217300029268140011700C0004431004017FE
:200508001946983A2945883A1085883A1185883A20C8B03A14C020151500001500800084BA
:2005100031004015908018262945883A1085883A1405883A28C000440009883A1540021532
:2005180080C001152005883ADFC00617DD400517DD000417DCC00317DC800217DC4001173A
:20052000DC000017DEC00704F800283A81400117003FED060080007410A761041021883AB7
:2005280088800C15003FD5063080411710C4B03A30804115003FE406008000341080000433
:2005300010000B2601004204103EE83A10000826100D883A10004015100041158080221594
:20053800003FCC0600800034108000041000021E013FFFC4003FDB0601002304103EE83A5F
:200540001007883A103FFA2688800C171821883A180001151880001588C00C15903FDB2619
:20054800003FBA06F800283ADEFFF3040080007410A6A104DF000B15170000170080003436
:20055000108000041005003AD8800215E0800C04DD800915DD400815DFC00C15DDC00A1598
:20055800DD000715DCC00615DC800515DC400415DC000315282D883AD9000115D8800015C1
:20056000282B003AE4400C1788001226DDC00017888001178C802217143FFFC480000B1617
:200568009027003AA800171E9800051E8409883A2105883A1485883A10C02017B0C01226A9
:20057000843FFFC400BFFFC480BFF61ED880021710003226DFC00C17DF000B17DDC00A17B6
:20057800DD800917DD400817DD000717DCC00617DC800517DC400417DC000317DEC00D04A2
:20058000F800283A8409883A88C001172105883A1445883A18FFFFC4118002171C00182671
:2005880010000215303FE6268D0001179800121E00C000441C06983A908040171884703A9F
:2005900010000D26908041171884703A10000E1E2105883A1485883A11400017D900011782
:20059800303EE83A88800117A0BFC61EB8800017147FD326003FC306303EE83A003FF9069F
:2005A0008C000115003FE7062105883A1485883A11000017303EE83A003FF206888001171B
:2005A80010000B1E8900001720000A26B9000015900002269009883A000000008809883AD6
:2005B00000000000BC400017883FB11E003FC10689000017882F883A2023883A883FAC1ECD
:2005B800003FBC0620000A260007883A2080004C1005003A2008D07A1000011E1947883A0B
:2005C000294B883A203FF91E1805883AF800283A0007883A1805883AF800283ADEFFFD0456
:2005C800DF000215DF000204E13FFF15E0BFFF17E0BFFE15E0BFFE171005003A1000021E6A
:2005D000002AF07000000106002AF0B0E037883ADF000017DEC00104F800283ADEFFFD0406
:2005D800DFC00215DF000115DF000104E13FFF15E13FFF17000971C0003FFF0600009524D3
:2005E0002062614C687420316820637520686E6100436F530000000A7665642F61746A2FFD
:2005E80061755F67305F7472000000007665642F61746A2F61755F67305F747200000000F5
:2005F0007665642F6C756E2F0000006C000000000000000000000000000000000000000093
:2005F8000000000000000000000000000000000000000000000000000000000000000000E3
:200600000000000000000000000000000000000000000000000000000000000000000000DA
:200608000000000000000000000000000000000000000000000000000000000000000000D2
:200610000000000000000000000000000000000000000000000000000000000000000000CA
:200618000000000000000000000000000000000000000000000000000000000000000000C2
:200620000000000000000000000000000000000000000000000000000000000000000000BA
:200628000000000000000000000000000000000000000000000000000000000000000000B2
:200630000000000000000000000000000000000000000000000000000000000000000000AA
:200638000000000000000000000000000000000000000000000000000000000000000000A2
:2006400000000000000000000000000000000000000000000000000000000000000000009A
:20064800000000000000000000000000000000000000000000000000000000000000000092
:2006500000000000000000000000000000000000000000000000000000000000000000008A
:20065800000000000000000000000000000000000000000000000000000000000000000082
:2006600000000000000000000000000000000000000000000000000000000000000000007A
:20066800000000000000000000000000000000000000000000000000000000000000000072
:2006700000000000000000000000000000000000000000000000000000000000000000006A
:20067800000000000000000000000000000000000000000000000000000000000000000062
:2006800000000000000000000000000000000000000000000000000000000000000000005A
:20068800000000000000000000000000000000000000000000000000000000000000000052
:2006900000000000000000000000000000000000000000000000000000000000000000004A
:20069800000000000000000000000000000000000000000000000000000000000000000042
:2006A00000000000000000000000000000000000000000000000000000000000000000003A
:2006A800000000000000988C000098940000989C00000000000000000000000000000000AE
:2006B00000000000000000000000000000000000000000000000000000000000000000002A
:2006B800000000000000000000000000000000000000000000000000000000000000000022
:2006C00000000000000000000000000000000000000000000000000000000000000000001A
:2006C800000000000000000000000000000000000000000000000000000000000000000012
:2006D00000000000000000000000000000000000000000000000000000000000000000000A
:2006D80000000004000000000001000A000000000002000A000000000000000000000000E7
:2006E0000000000000000000000097AC000000000000000000008600000086580000000053
:2006E80000000000000000000001100800009A9000009A90000097C000000000000000002E
:2006F00000000000000089D4000000000000000000000000000098D800000000000000001D
:2006F800000098D80000000000000000000098D80000000000000000000000000000000002
:200700000000000000000000000000000000000000000000000000000000000000000000D9
:200708000000000000000000000000000000000000000000000000000000000000000000D1
:200710000000000000000000000000000000000000000000000000000000000000000000C9
:200718000000000000000000000000000000000000000000000000000000000000000000C1
:200720000000000000000000000000000000000000000000000000000000000000000000B9
:200728000000000000000000000000000000000000000000000000000000000000000000B1
:200730000000000000000000000000000000000000000000000000000000000000000000A9
:200738000000000000000000000000000000000000000000000000000000000000000000A1
:20074000000000000000000000000000000000000000000000000000000000000000000099
:20074800000000000000000000000000000000000000000000000000000000000000000091
:200750000000000000000000000000000000000000000000000097CC000097CC00009A88A1
:2007580000009A88000098D8000098D8FFFFFFFF0000000000000000000000000000000083
:20076000000000000000000000000000000000000000000000000000000000000000000079
:20076800000000000000000000000000000000000000000000000000000000000000000071
:20077000000000000000000000000000000000000000000000000000000000000000000069
:20077800000000000000000000000000000000000000000000000000000000000000000061
:00000001FF
