:020000020000FC
:2000000000400034086008140800683A00000000000000000000000000000000000000003E
:2000080006C00074DEC0001406800074D6885D140080003410A9281400C0003418E94F1422
:2000100010C00326100000151080010410FFFD36000847C000085680003FFF06DEFFFD04CC
:20001800DFC00215DF000115DF000104E03FFF150100007421278F0400083140E03FFF150A
:2000200000002906E13FFF170140028400081B401007883A0080007410A7A20410C5883A70
:200028001080000310C03FCC18C0201C18FFE004008000741084010410C000350100004464
:2000300000085D40E13FFF1701400284000821401007883A0080007410A7A20410C5883AE4
:200038001080000310C03FCC18C0201C18FFE004008000741084010410C000350100004454
:2000400000085D4000C0007418C4010400800284188000350100190400085D40E0BFFF179B
:2000480010800044E0BFFF15E0BFFF1710801910103FD41E003FD10629001B2E28001A1682
:20005000008000440007883A01C007C40000030619C0132618C0004428000416294B883AC8
:200058001085883A293FFA3610000D260007883A214002362149C83A1886B03A1004D07AA2
:20006000280AD07A103FFA1E300002262005883AF800283A1809883A2005883AF800283AE0
:200068000007883A003FF806008000440007883A003FEF06DEFFFE04DC000015DFC001152C
:200070000021883A20000C16000D883A28000E16000813801007883A8005003A1000011ECE
:2000780000C7C83A1805883ADFC00117DC000017DEC00204F800283A0109C83A04000044C4
:20008000000D883A283FF20E014BC83A8021003A003FEF06DEFFFF04DFC000150180004474
:200088002807883A2000041628000C16DFC00017DEC00104000813810109C83A28000B1699
:20009000180B883A01800044000813800085C83ADFC00017DEC00104F800283A014BC83A83
:20009800DFC00017DEC00104000813810147C83A003FF306000D883A0008138101800044A1
:2000A00000081381DEFFFD04DC0000152021883A2809883ADFC00215DC4001152823883AEA
:2000A8000008328080C00217020000744220D204880D883A100F883A8009883A180B883A0F
:2000B0001A000115403EE83A047FFFC48009883A0180007431A7910401C000441440071EEF
:2000B80000FFFFC41805883ADFC00217DC400117DC000017DEC00304F800283A81400217CF
:2000C00028C00117183EE83A0007883A147FF51E003FF3060080007410A85D04200B883A07
:2000C800110000170008284120800007100005262007883A18C0004418800007103FFD1E8F
:2000D0001905C83AF800283A2880000BDEFFFA04DCC003151080020CDC800215DC40011511
:2000D800DFC00515DD000415DC0000152825883A2027883A3023883A100020262940008FED
:2000E00028000F1601C01B0E3821883A05010004000002060400170E9140008F880D883ABC
:2000E8009809883A800F883AA400010E01C100040008404088A3883A80A1C83A00BFF51669
:2000F0009080000B00FFFFC4108010149080000D1805883ADFC00517DD000417DCC00317FA
:2000F800DC800217DC400117DC000017DEC00604F800283A0007883A003FF50600FFFFC485
:20010000003FF306DEFFFD04DC0000150400007484292804DC400115800000152023883ABB
:200108002809883A300B883A380D883ADFC00215000860401007883A00BFFFC41880062663
:200110001805883ADFC00217DC400117DC000017DEC00304F800283A80800017103FF8268E
:20011800888000151805883ADFC00217DC400117DC000017DEC00304F800283ADEFFFE040E
:20012000DFC00115DF000015D839883A0100007421286504014000742967A204018000743C
:2001280031A8650400084FC0010000742120080401400074296008040180007431A0080480
:2001300000084FC00100007421278F040140007429678F040180007431A7A20400084FC0E6
:200138000009074000092980E037883ADFC00117DF000017DEC00204F800283ADEFFFC0444
:20014000DF000315DF000304E13FFD15E17FFE15E1BFFF15E0FFFE17E0BFFD1718800E26F6
:2001480000000A06E0BFFD1710C00017E0BFFE1710C00015E0BFFE1710800104E0BFFE1559
:20015000E0BFFD1710800104E0BFFD15E0FFFE17E0BFFF1718BFF31EE037883ADF00001736
:20015800DEC00104F800283ADEFFFD04DFC00215DF000115DF0001040009883A0008788052
:2001600000087BC0010000742127920401400074296792040180007431A79204000938C0AA
:2001680000091D000100007421248D040009A040D120CC17D160CD17D1A0CE17000805C011
:20017000E0BFFF15010000440008F140E13FFF170009A180DEFFFD04DFC00215DF00011555
:20017800DF000104E13FFF15E13FFF170008DB80E037883ADFC00117DF000017DEC002048C
:20018000F800283ADEFFF704DFC00815DF000715DF000704E13FFB15E17FFC15E1BFFD1539
:20018800E0BFFB171004803A1000091EE13FFB17014003040009DA001007883A0080007477
:2001900010A7FD041887883AE0FFFF1500000106E03FFF15E0BFFF17E0BFFA15E0BFFA17F6
:200198001005003A1000241EE0BFFA1710800217108000CC1005003A10001A1EE0BFFA17AA
:2001A00010800017108006171005003A1000151EE0BFFA171080001710800617E17FFC17E2
:2001A800E1BFFD17E13FFA17103EE83AE0BFF915E0BFF9171004403A1000071E00087280C9
:2001B000E0FFF91700C7C83A10C0001500BFFFC4E0BFFE1500000E06E0BFF917E0BFFE15E9
:2001B80000000B06000872801007883A008003441880001500000406000872801007883AF2
:2001C000008014441880001500BFFFC4E0BFFE15E0BFFE17E037883ADFC00117DF0000172C
:2001C800DEC00204F800283ADEFFFD04DFC00215DF000115DF0001040080007410A8640498
:2001D000108000171005003A1000061E0080007410A8640410800017103EE83AE0BFFF1507
:2001D800000003060080007410A92804E0BFFF15E0BFFF17E037883ADFC00117DF00001737
:2001E000DEC00204F800283ADEFFFD04DFC00215DF000115DF000104E13FFF1500097600E1
:2001E800008000441001703AE037883ADFC00117DF000017DEC00204F800283ADEFFFE0415
:2001F000DFC00115DF000015D839883A010000742127DD0400087F80010000742127E80425
:2001F80000087F80E037883ADFC00117DF000017DEC00204F800283ADEFFFD04DFC00215C8
:20020000DF000115DF000104E13FFF15E13FFF17014000742968610400090BC0E037883A43
:20020800DFC00117DF000017DEC00204F800283ADEFFFA04DFC00515DF000415DF000404B8
:20021000E13FFD15E17FFE15E1BFFF15E0BFFD1710800017E0BFFC15E0BFFC1711000A049A
:20021800E0BFFD1711C00217E17FFE17E1BFFF1700088E00E037883ADFC00117DF000017E2
:20022000DEC00204F800283ADEFFFA04DFC00515DF000415DF000404E13FFD15E17FFE15A8
:20022800E1BFFF15E0BFFD1710800017E0BFFC15E0BFFC1711000A04E0BFFD1711C002178A
:20023000E17FFE17E1BFFF1700089E40E037883ADFC00117DF000017DEC00204F800283A19
:20023800DEFFF604DF000915DF000904E13FFB15E17FFC15E1BFFD15E1FFFE15E0BFFB17EF
:2002400010800017E0BFFA15E0BFFC17E0BFF915E0BFFD171007883AE0BFFC1710C5883A15
:20024800E0BFF81500001606E0BFFA1710800037E0BFF715E0BFF71710A0000C1005003AF4
:200250001000081EE0BFF7171007883AE0BFF91710C00005E0BFF91710800044E0BFF9151E
:2002580000000706E0FFF917E0BFFC171880071EE0BFFE171090000C1004C03A1000031E7C
:20026000E0FFF917E0BFF81718BFE736E0FFF917E0BFFC1718800526E0FFF917E0BFFC17E8
:200268001887C83AE0FFFF1500000906E0BFFE171090000C1005003A1000031E00BFFD44F3
:20027000E0BFFF150000020600BFFEC4E0BFFF15E0BFFF17E037883ADF000017DEC0010458
:20027800F800283ADEFFF904DF000615DF000604E13FFC15E17FFD15E1BFFE15E1FFFF1505
:20028000E0BFFC1710800017E0BFFB15E0BFFE171007883AE0BFFD1710C5883AE0BFFA15D1
:2002880000001106E0BFFB17108001041080003710BFFFEC1005003A10000B1EE13FFB17BE
:20029000E0BFFD171080000310C03FCC18C0201C18FFE004E0BFFD1710800044E0BFFD15E6
:200298002005883A10C00035E0FFFD17E0BFFA1718BFEC36E0BFFE17E037883ADF0000173B
:2002A000DEC00104F800283ADEFFFA04DFC00515DF000415DF000404E13FFD15E17FFE1529
:2002A800E1BFFF15E0BFFD1710800017E0BFFC15E0BFFC1711000A04E0BFFD1711C002170A
:2002B000E17FFE17E1BFFF170008B380E037883ADFC00117DF000017DEC00204F800283A44
:2002B800DEFFFA04DFC00515DF000415DF000404E13FFD15E17FFE15E1BFFF15E0BFFD17A7
:2002C00010800017E0BFFC15E0BFFC1711000A04E0BFFD1711C00217E17FFE17E1BFFF172E
:2002C8000008C680E037883ADFC00117DF000017DEC00204F800283ADEFFF704DFC00815B0
:2002D000DF000715DF000704E13FFB15E17FFC15E1BFFD15E1FFFE15E0BFFE171090000C83
:2002D8001005003AE0BFFA15E0BFFB17108000171080020410800037E0BFF915E0BFFB17F6
:2002E000108000171080020410000035E0BFF9171080200C1005003A10000D1EE0BFFB17D6
:2002E80010800017108000371007883AE0BFFC1710C00005E0BFF917108000CC1004C03A0F
:2002F0001000031E00800044E0BFFF1500000806E0BFFA171004C03A103FE31E0008C080E2
:2002F8001007883A008002C418800015E03FFF15E0BFFF17E037883ADFC00117DF000017AC
:20030000DEC00204F800283ADEFFFD04DFC00215DF000115DF0001040080007410A864045E
:20030800108000171005003A1000061E0080007410A8640410800017103EE83AE0BFFF15CD
:20031000000003060080007410A92804E0BFFF15E0BFFF17E037883ADFC00117DF000017FD
:20031800DEC00204F800283ADEFFF704DFC00815DF000715DF000704E13FFC15E17FFD15AB
:20032000E1BFFE15E1FFFF15E0BFFF171090000C1005003AE0BFFB15E0BFFE17E0BFF91556
:20032800E0BFFC17108000171080020410800037E0BFFA15E0BFFA171080100C1005003AA6
:200330001000101EE0BFFC171080001711000104E0BFFD171080000310C03FCC18C0201CCB
:2003380018FFE004E0BFFD1710800044E0BFFD152005883A10C00035E0BFF91710BFFFC445
:20034000E0BFF915E0BFFB171005003A1000031EE0BFF9171004C03A103FE11EE0BFF91705
:200348001005003A1000041E0008D5801007883A008002C418800015E0FFFE17E0BFF91748
:200350001885C83AE037883ADFC00117DF000017DEC00204F800283ADEFFFD04DFC00215D6
:20035800DF000115DF0001040080007410A86404108000171005003A1000061E008000747A
:2003600010A8640410800017103EE83AE0BFFF15000003060080007410A92804E0BFFF15FE
:20036800E0BFFF17E037883ADFC00117DF000017DEC00204F800283ADEFFFA04DFC00515A8
:20037000DF000415DF000404E13FFF1500800244E0BFFC15E13FFC17014003F4295090046C
:200378000009DA00100B883A0100BEF4213C200400082740100B883A01200034213FFFC4AD
:2003800000082740100B883AE13FFF1700082740E0BFFD15E0BFFD171005003A10002A1E61
:20038800E03FFE150000170600A0003410BFFFC410BFFFC4103FFE1EE13FFC17014003F438
:20039000295090040009DA00100B883A0100BEF4213C200400082740100B883A01200034AB
:20039800213FFFC4000827401007883AE0BFFF1710C5C83AE0BFFF15E0BFFE171080004413
:2003A000E0BFFE15E0FFFE17E0BFFD1718BFE616E13FFC17014003F4295090040009DA00B6
:2003A800100B883A0100BEF4213C2004000827401009883AE17FFF170009DA0010BFFFC4EF
:2003B000103FFE1E00000D06E13FFC17014003F4295090040009DA00100B883A0100BEF4C4
:2003B800213C2004000827401009883AE17FFF170009DA0010BFFFC400BFFE160005883AD5
:2003C000E037883ADFC00117DF000017DEC00204F800283ADEFFF804DFC00715DF0006150B
:2003C800DF000604E13FFC15E0BFFC171004803A1000091EE13FFC17014003040009DA00E6
:2003D0001007883A0080007410A7FD041887883AE0FFFF1500000106E03FFF15E0BFFF1745
:2003D800E0BFFB15E0BFFB171005003A10001D1EE0BFFB1710800017108004171005003AB9
:2003E0001000071EE0BFFB171080001710800417E13FFB17103EE83AE0BFFE15000001066A
:2003E800E03FFE15E0BFFE17E0BFFA15E13FFC1700096E80E0BFFA171004403A1000071EC4
:2003F00000090140E0FFFA1700C7C83A10C0001500BFFFC4E0BFFD1500000806E03FFD1593
:2003F80000000606000901401007883A008014441880001500BFFFC4E0BFFD15E0BFFD174B
:20040000E037883ADFC00117DF000017DEC00204F800283ADEFFFD04DFC00215DF000115CF
:20040800DF0001040080007410A86404108000171005003A1000061E0080007410A864049E
:2004100010800017103EE83AE0BFFF15000003060080007410A92804E0BFFF15E0BFFF17B8
:20041800E037883ADFC00117DF000017DEC00204F800283ADEFFFF04DF000015D839883A99
:20042000E037883ADF000017DEC00104F800283ADEFFFC04DF000315DF000304E13FFD1504
:20042800E17FFE15E1BFFF15E0BFFF17E037883ADF000017DEC00104F800283ADEFFF90432
:20043000DFC00615DF000515DF000504E13FFD15E17FFE15E0BFFD171005003A1000041E38
:20043800E0BFFD17108002171004C03A1000071E000917001007883A008005841880001556
:2004400000BFFA84E0BFFF1500001306E0FFFD17E0BFFE17E0BFFB15E0FFFC15E0FFFC175B
:20044800E0BFFB1718800115E0BFFB1710C00017E0BFFC1710C00015E0BFFB1710C000176E
:20045000E0BFFC1718800115E0FFFB17E0BFFC1718800015E03FFF15E0BFFF17E037883A1B
:20045800DFC00117DF000017DEC00204F800283ADEFFFD04DFC00215DF000115DF0001046C
:200460000080007410A86404108000171005003A1000061E0080007410A864041080001783
:20046800103EE83AE0BFFF15000003060080007410A92804E0BFFF15E0BFFF17E037883A2E
:20047000DFC00117DF000017DEC00204F800283ADEFFFD04DFC00215DF000115DF00010454
:2004780000BFFF0400C0007418E78F041885883AE0BFFF1500000606E0BFFF171080001762
:20048000103EE83AE0BFFF1710BFFF04E0BFFF15E0FFFF170080007410A78E0418BFF62E85
:20048800E037883ADFC00117DF000017DEC00204F800283ADEFFFD04DFC00215DF00011547
:20049000DF00010400BFFF0400C0007418E78F041885883AE0BFFF1500000606E0BFFF170D
:2004980010800017103EE83AE0BFFF1710BFFF04E0BFFF15E0FFFF170080007410A78F04C0
:2004A00018BFF62EE037883ADFC00117DF000017DEC00204F800283ADEFFFF04DF000015E9
:2004A800D839883AE037883ADF000017DEC00104F800283ADEFFF804DFC00715DF00061507
:2004B000DC000515DF000504E13FFC15E17FFD15E1BFFE15E1FFFF15E13FFD17E17FFE175B
:2004B800E1BFFF1700094FC0E0BFFB15E0BFFB171004803A10001F1EE13FFB170400007431
:2004C0008427FD04014003040009DA001405883A10C00017E0BFFC1710C00015E13FFB17BA
:2004C800040000748427FD04014003040009DA001405883A1080010410C00017E0BFFC17BC
:2004D00010C00115E13FFB17040000748427FD04014003040009DA001405883A1080020434
:2004D80010C00017E0BFFC1710C00215E13FFB1700096E80E037883ADFC00217DF000117D3
:2004E000DC000017DEC00304F800283ADEFFFB04DFC00415DF000315DF000304E13FFD1567
:2004E800E17FFE15E1BFFF150100007421280004E17FFD170180004401C07FC400092B405A
:2004F000010000742127FD04E17FFE17000D883A01C07FC400092B400100007421280304AD
:2004F800E17FFF170180004401C07FC400092B40E037883ADFC00117DF000017DEC0020407
:20050000F800283ADEFFFA04DFC00515DF000415DC000315DF000304E13FFE15E0BFFE1734
:200508001080021710D00034E0BFFE1710C00215E03FFD1500002306E13FFD170400007475
:200510008427FD04014003040009DA001405883A10C00017E0BFFE17108000171880161E0B
:20051800E13FFD17040000748427FD04014003040009DA001405883A108002041080001728
:200520001004403A10000C1EE13FFD17014003040009DA001007883A0080007410A7FD040F
:200528001887883AE0BFFE171880032600BFFCC4E0BFFF1500000A06E0BFFD171080004414
:20053000E0BFFD150080007410A86304108000171007883AE0BFFD1718BFD72EE03FFF15A5
:20053800E0BFFF17E037883ADFC00217DF000117DC000017DEC00304F800283ADEFFF4049F
:20054000DFC00B15DF000A15DF000A04E13FFB15E17FFC15E1BFFD1500BFFFC4E0BFF81570
:2005480000BFFB44E0BFF715E03FF615E13FFB17014000742968610400097800E0BFFA15B4
:20055000E0BFFA171004C03A1000051EE13FFB1700098140E0BFFA1500800044E0BFF61582
:20055800E0BFFA171005003A1000311EE13FFA1700099340E0BFF815E0BFF8171004403A30
:200560001000031EE0BFF817E0BFF71500002A06E13FF817014003040009DA001007883A8E
:200568000080007410A7FD041885883AE0BFF915E0FFFC170090003410BFFFC41886703A2B
:20057000E0BFF91710C00215E0BFF6171004C03A1000061EE13FF91700094040E0BFF71583
:20057800E0BFF7171004803A1000131EE0BFFA17108003171005003A1000091EE0BFFA1717
:2005800010800317E13FF917E17FFB17E1BFFC17E1FFFD17103EE83AE0BFFF15000001063E
:20058800E03FFF15E0BFFF17E0BFF7150000020600BFFB44E0BFF715E0BFF7171004403AD4
:200590001000091EE13FF81700096E8000096880E0FFF71700C7C83A10C0001500BFFFC4E0
:20059800E0BFFE1500000206E0BFF817E0BFFE15E0BFFE17E037883ADFC00117DF000017EF
:2005A000DEC00204F800283ADEFFFD04DFC00215DF000115DF0001040080007410A86404BC
:2005A800108000171005003A1000061E0080007410A8640410800017103EE83AE0BFFF152B
:2005B000000003060080007410A92804E0BFFF15E0BFFF17E037883ADFC00117DF0000175B
:2005B800DEC00204F800283ADEFFFC04DFC00315DF000215DC000115DF000104E13FFF1591
:2005C000E0BFFF17108000D010000F1EE13FFF17040000748427FD04014003040009DA0044
:2005C8001405883A1080020410000015E13FFF17040000748427FD04014003040009DA00F8
:2005D0001405883A10000015E037883ADFC00217DF000117DC000017DEC00304F800283A91
:2005D800DEFFFF04DF000015D839883A000170FAE037883ADF000017DEC00104F800283A25
:2005E000DEFFF904DFC00615DF000515DF000504E13FFD15E17FFE15E0BFFE171080001786
:2005E800E0BFFC15E13FFD170008328010800044E0BFFB1500000D06E0BFFC1711000217E3
:2005F000E1BFFB17E17FFD170009A3801004C03A1000031EE0BFFC17E0BFFF1500000706E8
:2005F800E0BFFC1710800017E0BFFC15E0FFFE17E0BFFC1710FFF01EE03FFF15E0BFFF172F
:20060000E037883ADFC00117DF000017DEC00204F800283ADEFFFA04DFC00515DF000415CA
:20060800DF000404E13FFE150080007410A85F0410800017E0BFFD1500003306E0BFFD1765
:200610001100021700083280E0BFFC15E0BFFD1710C00217E0BFFC171885883A10BFFFC4F7
:200618001080000310803FCC1080201C10BFE00410800BD81000031EE0BFFC1710BFFFC42D
:20062000E0BFFC15E0BFFC171007883AE0BFFE171885883A1080000310803FCC1080201C72
:2006280010BFE00410800BE010000A1EE0BFFC171007883AE0BFFE171885883A108000031B
:2006300010803FCC1080201C10BFE0041004C03A10000A1EE0BFFD1711000217E1BFFC17BA
:20063800E17FFE170009A3801004C03A1000031EE0BFFD17E0BFFF1500000806E0BFFD179B
:2006400010800017E0BFFD1500C0007418E85F04E0BFFD1710FFC91EE03FFF15E0BFFF171A
:20064800E037883ADFC00117DF000017DEC00204F800283ADEFFFA04DFC00515DF00041582
:20065000DC000315DF000304E13FFF1500BFFA04E0BFFD15E03FFE1500002006E13FFE1781
:20065800040000748427FD04014003040009DA001405883A108000171004C03A1000141E61
:20066000E13FFE17040000748427FD04014003040009DA001407883AE0BFFF1718800015B7
:200668000080007410A8630410C00017E0BFFE171880040E00C0007418E86304E0BFFE17CB
:2006700018800015E0BFFE17E0BFFD1500000606E0BFFE1710800044E0BFFE15E0BFFE175E
:2006780010800810103FDD1EE0BFFD17E037883ADFC00217DF000117DC000017DEC003049D
:20068000F800283A200B883A000D883A0009883A000F883A0009A741DEFFFE04DC400015A7
:20068800000B883A2023883ADFC001150009BE408809883A0009E18031FFFFC43000061EC0
:2006900000000A0639FFFFC400BFFFC421000044294000443880052620C00003288000033A
:2006980018BFF8261885C83AF800283A0005883AF800283ADEFFF9040080007410A85E044B
:2006A000DC40011514400017DC000015DD4005158C000C17DD000415DCC00315DC800215A9
:2006A800DFC006152025883A282B883A3029883A3827883A8000262681400117008007C430
:2006B000114037169000202681802217300029268140011700C00044310040171946983A67
:2006B8002945883A1085883A1185883A20C8B03A14C02015150000150080008431004015B4
:2006C000908018262945883A1085883A1405883A28C000440009883A1540021580C00115B1
:2006C8002005883ADFC00617DD400517DD000417DCC00317DC800217DC400117DC000017EC
:2006D000DEC00704F800283A81400117003FED060080007410A92C041021883A88800C1503
:2006D800003FD5063080411710C4B03A30804115003FE406008000341080000410000B266A
:2006E00001004204103EE83A10000826100D883A100040151000411580802215003FCC0613
:2006E80000800034108000041000021E013FFFC4003FDB0601002304103EE83A1007883AE6
:2006F000103FFA2688800C171821883A180001151880001588C00C15903FDB26003FBA0642
:2006F800F800283ADEFFF3040080007410A85E04DF000B1517000017008000341080000431
:200700001005003AD8800215E0800C04DD800915DD400815DFC00C15DDC00A15DD00071581
:20070800DCC00615DC800515DC400415DC000315282D883AD9000115D8800015282B003A7B
:20071000E4400C1788001226DDC00017888001178C802217143FFFC480000B169027003A01
:20071800A800171E9800051E8409883A2105883A1485883A10C02017B0C01226843FFFC462
:2007200000BFFFC480BFF61ED880021710003226DFC00C17DF000B17DDC00A17DD8009170D
:20072800DD400817DD000717DCC00617DC800517DC400417DC000317DEC00D04F800283A13
:200730008409883A88C001172105883A1445883A18FFFFC4118002171C00182610000215F2
:20073800303FE6268D0001179800121E00C000441C06983A908040171884703A10000D26D1
:20074000908041171884703A10000E1E2105883A1485883A11400017D9000117303EE83A83
:2007480088800117A0BFC61EB8800017147FD326003FC306303EE83A003FF9068C000115DB
:20075000003FE7062105883A1485883A11000017303EE83A003FF2068880011710000B1ED2
:200758008900001720000A26B9000015900002269009883A000000008809883A000000005D
:20076000BC400017883FB11E003FC10689000017882F883A2023883A883FAC1E003FBC061A
:2007680020000A260007883A2080004C1005003A2008D07A1000011E1947883A294B883A24
:20077000203FF91E1805883AF800283A0007883A1805883AF800283ADEFFFD04DF000215E4
:20077800DF000204E13FFF15E0BFFF17E0BFFE15E0BFFE171005003A1000021E002AF07024
:2007800000000106002AF0B0E037883ADF000017DEC00104F800283ADEFFFD04DFC0021528
:20078800DF000115DF000104E13FFF15E13FFF170009DD80003FFF0600009BE0726174534F
:20079000000000740000000A7665642F61746A2F61755F67305F7472000000007665642F70
:2007980061746A2F61755F67305F7472000000007665642F7261752F00305F747665642F6C
:2007A0006C756E2F0000006C0000000000000000000000000000000000000000000000004F
:2007A800000000000000000000000000000000000000000000000000000000000000000031
:2007B000000000000000000000000000000000000000000000000000000000000000000029
:2007B800000000000000000000000000000000000000000000000000000000000000000021
:2007C000000000000000000000000000000000000000000000000000000000000000000019
:2007C800000000000000000000000000000000000000000000000000000000000000000011
:2007D000000000000000000000000000000000000000000000000000000000000000000009
:2007D800000000000000000000000000000000000000000000000000000000000000000001
:2007E0000000000000000000000000000000000000000000000000000000000000000000F9
:2007E8000000000000000000000000000000000000000000000000000000000000000000F1
:2007F0000000000000000000000000000000000000000000000000000000000000000000E9
:2007F8000000000000000000000000000000000000000000000000000000000000000000E1
:200800000000000000000000000000000000000000000000000000000000000000000000D8
:200808000000000000000000000000000000000000000000000000000000000000000000D0
:200810000000000000000000000000000000000000000000000000000000000000000000C8
:200818000000000000000000000000000000000000000000000000000000000000000000C0
:200820000000000000000000000000000000000000000000000000000000000000000000B8
:200828000000000000000000000000000000000000000000000000000000000000000000B0
:200830000000000000000000000000000000000000000000000000000000000000000000A8
:200838000000000000000000000000000000000000000000000000000000000000000000A0
:20084000000000000000000000000000000000000000000000000000000000000000000098
:20084800000000000000000000000000000000000000000000000000000000000000000090
:20085000000000000000000000000000000000000000000000000000000000000000000088
:20085800000000000000000000000000000000000000000000000000000000000000000080
:2008600000000000000000000000000000000000000000003332313037363534000039386B
:200868000000000000009F5400009F5C00009F64000000000000000000000000000000007F
:20087000000000000000000000000000000000000000000000000000000000000000000068
:20087800000000000000000000000000000000000000000000000000000000000000000060
:20088000000000000000000000000000000000000000000000000000000000000000000058
:20088800000000000000000000000000000000000000000000000000000000000000000050
:20089000000000000000000000000000000000000000000000000000000000000000000048
:2008980000000004000000000001000A000000000002000A00000000000000000000000025
:2008A000000000000000000000009E5C000000000000000000008830000088880000000076
:2008A800000000000000000000011030000000000000000000009E700000000000000000E1
:2008B00000008A8800008AE0000000000000000000000000000110000000A1840000A18451
:2008B80000009E7C00000000000000000000000000009090000000000000000000000000E6
:2008C00000009FCC000000000000000000009FCC000000000000000000009FCC00000000D7
:2008C800000000000000000000000000000000000000000000000000000000000000000010
:2008D000000000000000000000000000000000000000000000000000000000000000000008
:2008D800000000000000000000000000000000000000000000000000000000000000000000
:2008E0000000000000000000000000000000000000000000000000000000000000000000F8
:2008E8000000000000000000000000000000000000000000000000000000000000000000F0
:2008F0000000000000000000000000000000000000000000000000000000000000000000E8
:2008F8000000000000000000000000000000000000000000000000000000000000000000E0
:200900000000000000000000000000000000000000000000000000000000000000000000D7
:200908000000000000000000000000000000000000000000000000000000000000000000CF
:200910000000000000000000000000000000000000000000000000000000000000000000C7
:200918000000000000000000000000000000000000000000000000000000000000000000BF
:2009200000009E9400009E940000A17C0000A17C00009FCC00009FCCFFFFFFFF0000000047
:200928000000000000000000000000000000000000000000000000000000000000000000AF
:200930000000000000000000000000000000000000000000000000000000000000000000A7
:2009380000000000000000000000000000000000000000000000000000000000000000009F
:20094000000000000000000000000000000000000000000000000000000000000000000097
:00000001FF
